:020000040800F2
:1000000008050020C50000085D130008C91000089D
:1000100000000000000000000000000000000000E0
:10002000000000000000000000000000A71300080E
:100030000000000000000000A51300085D16000885
:10004000D700000800000000D7000008D700000813
:10005000D7000008D7000008D7000008D700000824
:1000600000000000D700000831010008D700000898
:10007000D7000008D7000008D700000800000000E3
:10008000D70000080000000000000000D7000008B2
:1000900000000000D7000008D7000008D7000008C3
:1000A00000000000D700000800000000D700000892
:1000B0000348854600F02AF800480047C5190008A3
:1000C000080500200448804704480047FEE7FEE793
:1000D000FEE7FEE7FEE7FEE7E1160008B1000008D4
:1000E00030B50B46014600202022012409E00D46D0
:1000F000D5409D4205D31D469540491B2546954058
:1001000040191546521E002DF1DC30BD064C01256C
:10011000064E05E0E36807CC2B430C3C98471034AF
:10012000B442F7D3FFF7C8FFD01A0008F01A00084E
:1001300010B5034800F018F8024800F015F810BD9B
:10014000900000205800002010B5046863604368E8
:10015000102B036803D099600068C26010BD9A60DC
:100160000068C16010BDFEE7F8B504467448016838
:10017000734A734E724F08322068D3141C363037DE
:10018000904201D1082210E0B04201D180220CE05F
:10019000B84201D11A4608E0694A4432904202D17D
:1001A0000122D20301E00122D2042546114020356C
:1001B00000292ED00168C94309072AD40168082202
:1001C000914301605E4920680831884201D10820CE
:1001D00010E0B04201D180200CE0B84201D11846B5
:1001E00008E057494431884202D10120C00301E0B0
:1001F0000120C00452494860606B012108436063DC
:100200000420687000202870216B002901D020464E
:1002100088474B4802684A49206808310B158842D4
:1002200001D1042110E0B04201D140210CE0B842DC
:1002300001D1194608E042494431884202D10121E6
:10024000890301E0012189040A422BD00168C943D6
:10025000490727D40168890603D4026804218A4328
:100260000260374920680831884201D1042010E03B
:10027000B04201D140200CE0B84201D1184608E05C
:100280002F494431884202D10120800301E001203E
:1002900080042B49486011206870E16A002901D070
:1002A0002046884726480268254920680831884248
:1002B00001D1022311E0B04201D120230DE0B84268
:1002C00002D101235B0208E01D4B4433984202D166
:1002D00001235B0301E001235B041A422ED0026874
:1002E000D24392072AD40268920603D402680223FA
:1002F0009A4302602068884201D1022011E0B04296
:1003000001D120200DE0B84202D10120400208E0D6
:100310000B494431884202D10120400301E0012011
:10032000400407494860606B6063012068700020EA
:100330002870A16A002901D020468847F8BD000036
:1003400000000240F0B5002806D0014620314A786E
:100350000024002A02D002E00120F0BD0C7002222D
:100360004A7005682B680B4A866813404268076923
:100370003243C6683E43324346693243866932435C
:10038000C66932431A432A60446301204870002042
:10039000F0BD00000FC0FFFFF8B50446203005781F
:1003A000012D1ED0012505700226467020680768C1
:1003B000AF4307602046FFF7C7FE2068016831435E
:1003C000016020680168042211430160206801680F
:1003D0000822114301602068016829430160002060
:1003E000F8BD0220F8BD0000F8B500238DE001241F
:1003F0009C40A44622407DD04C68022C01D0122C97
:100400000CD1DC08A40027183C6A5D07ED0E0F260E
:10041000AE40B4430E69AE4026433E6205685E00BE
:100420000324B4400F79A543BF07BF0FB7402F4344
:1004300007604D68012D05D0022D03D0112D01D08C
:10044000122D0ED18568CF68A543B7402F43876032
:1004500047686546AF430D79ED06ED0F9D403D437E
:100460004560C568A5438C68B4402C43C4604C68A3
:10047000E40049D5284CA56901263543A561A46946
:100480009D0834400094254CAD002F19BC689D0791
:100490002E0F0F25B540AC430925ED06A84201D12A
:1004A00000250FE01E4DA84201D101250AE01D4D97
:1004B000A84201D1022505E01B4DA84201D1032528
:1004C00000E00525B5402543BD60184C25684E6801
:1004D0009543F60300D51543256065684E6895433E
:1004E000B60300D515436560A5684E689543F602CE
:1004F00002D500E008E01543A560E5684E68954325
:10050000B60200D51543E5605B1C0A681446DC4062
:1005100000D06CE7F8BD0000001002400000014070
:100520000004004800080048000C00480004014096
:100530000069084000D001207047002A01D0816185
:1005400070478162704700000148006870470000F2
:100550001800002070B502462032537D202B1CD19C
:10056000137D012B19D001231375242454750468BD
:1005700025689D432560046825681E03B5432560F2
:10058000046825680D43256000680168194301600F
:10059000202050750020107570BD022070BD70477E
:1005A0002030407D7047000070B5040006D025461D
:1005B0002035687D0026002802D005E0012070BDAE
:1005C0002E75204600F044F82420687520680168E4
:1005D0004908490001600F216068090688432168C5
:1005E0000861206882680121C9038A438260A0688B
:1005F000002807D0E268012A01D02121890208439E
:1006000021688860E068022802D121688002486081
:10061000206841680D4A11434160616920690843BF
:10062000A169090208432168C860216AE06908439A
:100630002168086020680168012211430160A663F7
:1006400020206875AE75002070BD0000008000029B
:10065000F0B506460068244987B0884241D103209E
:10066000400200901220019001200290032003908C
:100670000420049009206946C006FFF7B5FE1B4818
:10068000C269012149050A43C261C069194D084088
:1006900005901748002411C52C60AC60EC608027E1
:1006A0002C616F606C611348083DFFF74BFE00281A
:1006B00001D0FFF758FD35636E620D480E4D1438BA
:1006C00028601020291D91C12C616C61AC61284605
:1006D000EC61FFF737FE002801D0FFF744FDF5621B
:1006E0006E6207B0F0BD00000054004000100240F0
:1006F00030000240580000209000002070470000A9
:10070000F8B5054604462035687D202848D10029E3
:100710002CD0002A2AD0287D012841D0012028751C
:10072000222068752020A8750027A76361622285B2
:100730006285236B1B489862236B1B481863134622
:1007400026680A4631462431206BFFF725FE2068D3
:1007500041680126F603B1434160144B0022082191
:10076000204600F041FD00280DD101E00120F8BD38
:1007700021680820C861410319230122204600F0A6
:1007800033FD002805D020684168314341600320D3
:10079000F8BD20680168314301602F750020F8BD65
:1007A0000220F8BDF5100008CB100008102700004B
:1007B00002480168491C01607047000018000020D1
:1007C00010B506480168102211430160002000F0B6
:1007D00007F800F017F8002010BD000000200240CC
:1007E00010B5044600F022F97D21C900FFF778FC1E
:1007F00000F03EFB00222146501E00F029F80020A8
:1008000010BD000008B50C488169012211438161C7
:1008100080691040002200901146501F00F018F827
:1008200000221146901E00F013F800221146501EBF
:1008300000F00EF808BD000000100240C106C90E0D
:1008400001208840014908607047000000E100E095
:1008500010B500F085FD10BDF8B5054600682C4CBC
:10086000C00340D5E16920040143E161E169294EFB
:10087000014000913068A11508433060FFF764FE25
:10088000074604E0FFF760FEC01B642821D83068EB
:10089000C005F7D5206A032636026968304031402A
:1008A000884220D0206A226AB043012109040A4309
:1008B0002262226A8A432262206280070ED5FFF7F5
:1008C00043FE074607E0FFF73FFEC11B1248814287
:1008D00001D90320F8BD206A8007F4D5206A696831
:1008E000B043084320622878C00705D0206BA96870
:1008F00080088000084320632878800605D5206B97
:1009000010218843E968084320630020F8BD0000F7
:10091000001002400070004088130000F8B5054642
:100920003F480E460068C007C00FB0420AD23C489C
:10093000016849084900314301600068C007C00FE1
:10094000B0425CD12878374C800705D56068F0212B
:100950008843A968084360602878C0073FD068686A
:10096000012813D02168022813D08907002946DA0C
:1009700061688908890001436160FFF7E5FD6968E6
:10098000074601290DD0022917D024E021688903E8
:10099000ECE78901EAE7FFF7D7FDC11B2248814256
:1009A00017D860680007800F0128F4D117E0FFF71F
:1009B000CBFDC11B1C4881420BD860680007800F2B
:1009C0000228F4D10BE0FFF7BFFDC11B164881429E
:1009D00001D90320F8BD60680007800FF3D11048EB
:1009E0000168C907C90FB1420BD90168490849001C
:1009F000314301600068C007C00FB04201D0012040
:100A0000F8BD2878400706D56068072109028843A9
:100A1000E968084360600020FFF7E2FE0020F8BDAF
:100A200000200240001002408813000010B500F0C2
:100A300011F805494968054A0906090F515CC84083
:100A40000349086010BD000000100240BE1A0008F3
:100A50001400002010B512A30FCB88B06C460FC451
:100A600013A30FCB0FC416494A680C20134603404A
:100A70001448042B0FD0082B0DD193021B0F6C468A
:100A8000E45CC96A04AB0907090F595CD20304D5B9
:100A9000FFF726FB604308B010BD0B486043FAE740
:100AA00002030405060708090A0B0C0D0E0F1010AF
:100AB0000102030405060708090A0B0C0D0E0F10AE
:100AC0000010024000127A0000093D00F8B504460B
:100AD0000078DD4DC0075CD068680007800F0128F2
:100AE00007D068680007800F022809D16868C00332
:100AF00006D5286880034CD5606800287BD048E084
:100B0000286801263604B04328602868B700B84337
:100B10002860FFF719FD009005E0FFF715FD00992B
:100B2000401A642868D828688003F6D460680128D1
:100B30000AD0002801D0052808D029682846B143EA
:100B400029602968B94307E0284603E02968284658
:100B500039432960016831430160606800280CD086
:100B6000FFF7F2FC064604E0FFF7EEFC801B64286A
:100B7000D8D828688003F7D50BE0FFF7E5FC0646D8
:100B800004E0FFF7E1FC801B6428CBD828688003D1
:100B9000F7D420780127800700283DDA686800072D
:100BA000800F07D068680007800F022809D16868A5
:100BB000C00306D42868800715D5E06801281AD13B
:100BC00011E0E0680028286817D038432860FFF754
:100BD000BBFC064604E0FFF7B7FC801B0228A1D847
:100BE00028688007F7D52868F82188432169C9005B
:100BF0000843286010E025E1CCE040084000286070
:100C0000FFF7A2FC064604E0FFF79EFC801B0228CB
:100C100088D828688007F7D42078000721D5206A73
:100C20000028686A0ED038436862FFF78DFC0646DC
:100C300004E0FFF789FC801B022899D8686A8007C6
:100C4000F7D50EE0400840006862FFF77DFC0646DD
:100C500004E0FFF779FC801B022889D8686A8007C6
:100C6000F7D4207804264007002866DAE969B00640
:100C70000143E961E9690140744800910168821506
:100C800011430160FFF760FC009005E0FFF75CFC9A
:100C90000099401A64287DD86C480068C005F5D5D5
:100CA000286A400840002862286AB0432862FFF79B
:100CB0004BFC009006E0FFF747FC0099411A64489E
:100CC000814267D8286A8007F5D4A06801280BD034
:100CD000002801D0052809D0296A2846490849007A
:100CE0002962296AB14307E0284603E0296A2846B9
:100CF00031432962016A39430162A06800280ED09D
:100D0000FFF722FC009006E0FFF71EFC0099411A55
:100D10004F4881423ED8286A8007F5D50DE0FFF79D
:100D200013FC009006E0FFF70FFC0099411A4848B9
:100D300081422FD8286A8007F5D42078C00635D59F
:100D4000606901280CD0401D686B24D03043686373
:100D5000686B400840006863FFF7F6FB064622E038
:100D6000686B30436863686B38436863FFF7ECFB7C
:100D7000064604E0FFF7E8FB801B02285BD8686B9F
:100D80008007F7D5686BF8218843A169C90008433B
:100D900068630BE04FE0B0436863F3E7FFF7D4FB11
:100DA000801B022847D8686B8007F7D4606A002848
:100DB00046D069680907890F022943D00126360603
:100DC0000228286805D0B0432860FFF7BDFB044621
:100DD00033E0B0432860FFF7B7FB074604E0FFF7B6
:100DE000B3FBC01B022826D828688001F7D4E86A24
:100DF000216B000900010843E862A16AE06A084328
:100E000069683D22120491430843686028683043B2
:100E10002860FFF799FB044604E0FFF795FB001BF1
:100E2000022808D828688001F7D509E0FFF78CFB75
:100E3000001B022801D90320F8BD28688001F5D4E1
:100E40000020F8BD0120F8BD0010024000700040F5
:100E500088130000042204490428086902D0904342
:100E6000086170471043FBE700E000E070470000B6
:100E7000094910B5401E884201D9012010BD074C18
:100E800060610321081F00F06BFA0020A0610720B9
:100E90002061002010BD0000FFFFFF0000E000E027
:100EA00010B5FFF7E3FF10BD70B502462032137E88
:100EB000012B1BD001231376022454760468656845
:100EC0007026B5436560046865680E6835436560E3
:100ED0000468A5688026B543A560006884684968F1
:100EE0000C43846053760020107670BD022070BDE4
:100EF000F8B5064604462036307E0D4601280DD052
:100F000001203076022070760427002A08D0042AB7
:100F100016D0082A2AD00C2A4DD137E00220F8BD7D
:100F2000206800F051FC206881690822114381612A
:100F300020688169B9438161206881692A6912E06A
:100F4000206800F07DFC206882690121C9020A4303
:100F50008261206881690122920291438161206847
:100F600081692A6912021143816124E0206800F03E
:100F7000A1FC2068C26908210A43C2612068C169D6
:100F8000B943C1612068C1692A6912E0206800F094
:100F9000CDFC2068C1690122D2021143C1612068E1
:100FA000C269012189028A43C2612068C1692A6934
:100FB00012021143C1610120707600203076F8BD25
:100FC00070B5040005D025462035687E002802D083
:100FD00006E0012070BD00202876204600F00AF8C7
:100FE00002206876211D206800F0A8FB01206876A9
:100FF000002070BD08B500680549884207D1054842
:10100000C26902210A43C261C0690840009008BD5C
:10101000000400400010024010B5044600680122A0
:1010200000F0C6FB0A482168814205D00948814288
:1010300002D00948814204D1486C0122D2031043F6
:10104000486420680168012211430160002010BD3E
:10105000002C0140004401400048014030B50446E6
:101060000068002200F0A4FB144A13482168931082
:10107000814205D01248814202D0124881420AD1F1
:10108000086A104207D1086A184204D1486C012549
:10109000ED03A84348642068016A114206D1016A41
:1010A000194203D101684908490001600120203438
:1010B0006076002030BD0000002C014011110000BE
:1010C0000044014000480140FEE710B5406A016855
:1010D0004A680123DB031A434A6000224285202329
:1010E000C1184B758A75816B102211438163FFF71C
:1010F00056FA10BD70B5446A1921204600F0ABF8CD
:101100002025002805D0A06B0428A06B24D02843FC
:10111000A0632068C5610122D60319233146204609
:1011200000F062F8002802D0A06B2843A06320687A
:101130000168B1430160206841683143416000218A
:1011400061852046203045758175A06B00282046BA
:1011500005D0FFF724FA70BD04210843D8E7FFF754
:10116000CDFA70BDF8B50F460446FFF7EDF90090D3
:1011700020688069C043C00632D400262546203549
:1011800020688069C04380060FD5781CF8D0002FF6
:1011900005D0FFF7D9F90099401AB842F0D92020BC
:1011A0006875AE752E750320F8BD21681020C861E2
:1011B00021682020C86121688A69D243D20703D000
:1011C0008A6901231A438A6121684A68054B1A40DB
:1011D0004A600421A1636875AE752E750120F8BDC3
:1011E0000020F8BD00E800FEF8B51D4614460F4685
:1011F0000646FFF7A9F9214634462034009000291D
:101200000BD021E0681C08D0002D16D0FFF79CF908
:1012100001460098081AA8420FD8306881693846FC
:101220008843EFD115E0681C0ED0002D05D0FFF7E4
:101230008BF90099401AA84206D920206075002039
:10124000A07520750320F8BD306881693846884351
:10125000E9D00020F8BD70B50E460446FFF774F9DA
:10126000054619E031462046FFF77CFF002801D0F3
:10127000012070BD002E04D0FFF766F9401BB0427C
:101280000AD9A16B20200143A1632034607500209E
:10129000A0752075032070BD20688069C04380065A
:1012A000E0D4002070BD000030B5164887B0426918
:1012B000012189050A43426142690A400592426957
:1012C00049110A4342614069002408400590032007
:1012D00001256A4631C269460B48FFF785F802943A
:1012E00003941F2009240090E406694601952046D6
:1012F000FFF77AF800221F212046FFF71EF907B0FA
:1013000030BD0000001002400014004810B5104825
:101310000E4901600F4941600F4909784900816019
:101320000121C1600021016141618161C1610162EE
:10133000FFF73AF9002800D0FEE700210448FFF744
:1013400009F9002800D0FEE710BD0000005400405D
:101350001C0000200B02000000000020704700006D
:101360008307FF22DB0E9A408907090E9940002867
:101370000BDA0007000F0838830808489B0018188C
:10138000C36993430B43C3617047830804489B00C0
:101390001B181868904308431860704700ED00E080
:1013A00000E400E070477047F0B506462E4C89B067
:1013B0002C4820602D487D21C90000252C4F8642F5
:1013C00002D90646786009E07E60142E01D22948D1
:1013D00002E08E4202D22F20606000E0656061680A
:1013E0002548491CFEF77CFE3146FEF779FEA560D4
:1013F0002561E0601C48FFF7E3FD002801D0FEF7FF
:10140000B2FE079507A918480895FFF74DFD00287B
:1014100001D0FEF7A8FE602000903988E068174EE2
:1014200048433146FEF75CFE019002950022694672
:1014300004950D48FFF75CFD002801D0FEF793FEF0
:101440007988E06848433146FEF74AFE019004225D
:1014500069460548FFF74CFD002801D0FEF783FEE2
:1014600009B0F0BD00040040C80000208038010031
:101470000C000020ED020000006CDC0210270000D0
:1014800010B51A4A88B0914200D91146184B00286D
:1014900028D004245980602000901648C068484332
:1014A0001146FEF71DFE0190002002900490224696
:1014B00069461048FFF71CFD002801D0FEF753FED7
:1014C00021460C48FFF7CAFD002801D0FEF74BFE6D
:1014D00021460848FFF7A0FD002801D0FEF743FE93
:1014E00008B010BD00241980D5E7000010270000C7
:1014F0000C000020C800002030B585B00C46002844
:1015000004D0012804D0022804D11AE0402000E0D1
:1015100080200090092000220121C006022C15D253
:1015200001910292039269460546FEF75DFF00981D
:10153000002C08D081B201222846FEF7FEFF05B03C
:1015400030BDC020E5E781B20022F5E70223049117
:101550000292019303926946FEF746FFEFE770B5EA
:1015600004460920C0060B0000F010FA05041C31E7
:1015700050711B00012204210546FEF7DEFF002CFE
:1015800006D0012208212846FEF7D7FF01224AE0B3
:10159000012211462846FEF7D0FF012250E0FFF756
:1015A000ABFF70BD012204210546FEF7C6FF002CEB
:1015B00006D0002208212846FEF7BFFF012213E0D3
:1015C000002201212846FEF7B8FF012218E001227F
:1015D00004210546FEF7B1FF002C0BD001220821A3
:1015E0002846FEF7AAFF002210212846FEF7A5FF95
:1015F00002211DE0012211462846FEF79EFF00222F
:1016000002212846FEF799FF02211EE00122042153
:101610000546FEF792FF002C0CD000220821284638
:10162000FEF78BFF002210212846FEF786FF0121DE
:101630000120B4E7002201212846FEF77EFF0022A8
:1016400002212846FEF779FF01210020A7E70022AA
:101650000421FEF772FF01210220A0E710B5FFF779
:10166000A7F8FFF71DFC10BD30B595B0022501208D
:10167000039010200995049005200024C0040095D3
:101680000B900A940C946846FFF720FA002800D0CB
:10169000FEE707200D900F9401210E9510940DA8E0
:1016A000FFF73CF9002800D0FEE7202011901494A9
:1016B00011A8FFF7D1F8002800D0FEE7FFF7B6F930
:1016C0007D21C900FEF70CFDFFF7D2FB0420FFF7D8
:1016D000C1FB00221146501EFFF7BAF815B030BD0D
:1016E000134801680122114301604168114A114009
:1016F00041600168104A11400160016801229204B2
:101700009143016041683F22120491434160C16AE4
:1017100009090901C162016BFF221432914301637F
:10172000416B490849004163002181607047000016
:10173000001002400CB8FF08FFFFF6FE70B502680B
:10174000164B174D984201D0A84204D1144670267A
:101750004A68B4432243134C134E984208D0A8421F
:1017600006D0124DA84203D0A04201D0B04204D10D
:1017700003252D02AA43CD682A4302608A68C2620B
:101780000A688262984203D0A04201D0B04201D1DF
:10179000096901630121416170BD0000002C014015
:1017A0000004004000440140004801400020004087
:1017B00010B50123046A8B409C430462036A8A408B
:1017C0001343036210BD0000F0B5026A52085200D4
:1017D0000262056A436882697024A24392080C6819
:1017E00092001443022295438A68134E2A43114DF6
:1017F000A84204D0B04202D0104FB84206D1082708
:10180000BA43CF681743042297433A46A84204D00C
:10181000B04202D0094DA84206D103252D02AB43A8
:101820004D691D438B692B43436084614968416363
:101830000262F0BD002C014000440140004801401C
:1018400070B5026A10239A430262046A436882698F
:1018500073252D02AA430D682D02154320229443BF
:101860008A6812012243104CA04208D11446CA686B
:101870008026B443120122434024A24305E00B4CCE
:10188000A04202D00A4CA04208D10324A402A343E0
:101890004C69A4001C438B699B0023434360856112
:1018A00049688163026270BD002C01400044014020
:1018B0000048014070B5026AFF2301339A43026277
:1018C000046A4368C2697025AA4392080D689200B1
:1018D00015430122520294438A6812022243104C9B
:1018E000A04207D1C414A243CC68240222430615A7
:1018F000B24305E00B4CA04202D00B4CA04208D1F1
:1019000003242403A3434C6924011C438B691B015A
:1019100023434360C5614968C163026270BD000032
:10192000002C0140004401400048014030B5026AEB
:1019300001231B039A430262056A4268C369732448
:101940002402A3430C6824021C4301235B039D4330
:101950008B681B032B430A4DA84205D0094DA842B2
:1019600002D0094DA84205D10125AD03AA434D6916
:10197000AD012A434260C46149680164036230BD1D
:10198000002C0140004401400048014030B474463E
:10199000641E2578641CAB4200D21D46635D5B006B
:1019A000E31830BC184702E008C8121F08C1002A1B
:1019B000FAD170477047002001E001C1121F002AD0
:1019C000FBD1704708B5FEF7FBFEFFF74DFEFFF7B2
:1019D0006BFC1E4D01212846FEF7AAFD1C4C02217E
:1019E00060702846FEF7A4FDA070617840000843AF
:1019F0002178401820701748416901221143416144
:101A0000406910400022009011460A20FEF720FF96
:101A10000A20FEF713FFFFF779FC01210220FFF7F0
:101A20006BFD0B490422491D0B48FEF769FE002897
:101A300000D0FEE70848FEF7B3FD2028FAD104499C
:101A4000C91C881C00F00AF8EBE7000000140048ED
:101A500000000020001002401C000020FEB50278AB
:101A60000C4611096F266B27002902D0012924D1C9
:101A70000DE0C178120712091143427880781204F0
:101A80000002024311430846FFF78EFC13E0D10722
:101A9000C90F0091C178457882780802104340BA96
:101AA000019029460098FFF75AFD032D03D00199B4
:101AB0000098FFF7E5FC267067700020FEBD00006F
:101AC00000000102030401020304060708090000E4
:101AD000F01A0008000000201C000000A6190008F1
:101AE0000C1B00081C000020EC040000B6190008C4
:101AF0002D000000000000000000000000000000B9
:0C1B00000000000000127A00000000004D
:04000005080000B13E
:00000001FF
